:02000000E22BF1
:06000600000000000800EC
:0E000C00213083120313FD00FD0B0A280800AB
:10001A000F3083120313FC004730FD00FD0B132839
:0A002A00FC0B132800000000080082
:1000340083120313FB01FA01F9018030F800F10C7B
:10004400F00C031C2E287408F90775080318750FA3
:10005400FA070318FB0A0310F01F36287408FA077E
:1000640075080318750FFB07FB0CFA0CF90CF80C58
:10007400031C21287B08F3007A08F2007908F100B8
:060084007808F0000800FE
:10008A0083160313B81B4C28831206104E288312BA
:10009A0006148316381B5428831286105628831296
:1000AA0086148316B81A5C28831206115E288312F6
:1000BA0006158316381A6428831286116628831255
:1000CA0086156F186A2886166B288612061603206C
:1000DA0006128316B819742883120610762883121A
:1000EA000614831638197C28831286107E288312F8
:1000FA0086148316B8188428831206118628831258
:10010A000615831638188C28831286118E288312B6
:10011A0086156F18922886169328861206160320CB
:0E012A0006126F1C9A280D209B280620080044
:100138000E3083120313FD00FD0BA02800000800F9
:0E0148008312031366088A006508820008000F
:10015600831203139F01C0309F042E09F00070081C
:1001660083169F051F179F173708F000F00D7010B4
:10017600F00D7010F00D7010700883129F041F149C
:100186009C201F151F1DC9280000C5281F101E080A
:10019600F100F00183161E08F0040030F104080097
:1001A600831203136F1083163708B80045206F14A7
:0201B60008003F
:1001B800831603131208013EF000F1010318F10A37
:1001C8003708F400F5011A200630F2007008F40030
:1001D8007108F50072080319F628F50CF40CF513EC
:1001E800FF3EEF280430F1007408F000710803198D
:1001F8000129F00D7010FF3EFB2830307005F30028
:100208007408F0007508F100F10CF00CF113F10C12
:10021800F00CF11370089B000F309D0573089D04C6
:020228000800CC
:10022A00831603131208013EF000F1010318F10AC4
:10023A003708F400F5011A200630F2007008F400BD
:10024A007108F500720803192F29F50CF40CF5133F
:10025A00FF3E28290430F1007408F00071080319E0
:10026A003A29F00D7010FF3E342930307005F30042
:10027A007408F0007508F100F10CF00CF113F10CA0
:10028A00F00CF113700895000F3097057308970466
:02029A0008005A
:10029C0083160313B701AB207008A7007108A800E0
:1002AC000130B700AB207008A9007108AA00023019
:1002BC00B700AB207008AB007108AC000330B7007E
:1002CC00AB207008AD007108AE000430B700AB2055
:1002DC007008AF007108B0000530B700AB20700893
:1002EC00B1007108B2002708B3002808B400B501AA
:1002FC00B60180303606F00080307002031D88296C
:10030C00063035020318B8293508F0003608F1001C
:10031C00F00DF10D70107008A73E84000008F1007C
:10032C00840A0008F20080303406F0008030720637
:10033C007002031DA329710833020318B429350870
:10034C00F0003608F100F00DF10D70107008A73EAA
:10035C0084000008B300840A0008B400B50A03192D
:10036C00B60A7F2996303307A20034080318013EE1
:04037C00A3000800D2
:10038000831603138710831212150C309D04080086
:10039000DA29803083160313A700ED29C030A700A7
:1003A000ED299430A700ED29D430A700ED29803045
:1003B000A700ED29831603132708013A0319C92959
:1003C0002708023A0319CE292708033A0319D1292D
:1003D0002708043A0319D429D7292803F00027084D
:1003E000F0077008A7007008B80045206F1083164A
:1003F000AA012A082907840000080319082A2A08E4
:10040000290784000008B700D3208316AA0AF92917
:0604100083126F140800C6
:10041600FF3083160313A400FF30A500FF30A600AB
:10042600FF3083129F01C0309F042E09F000700830
:0E04360083169F051F179F1783121F140800BF
:100444008030831603132806F00080307002031DE9
:100454002D2A003027020318382A83120811881520
:1004640083162708003CB700DC203F2A83120815B6
:10047400881183162708B700DC20803083162A06EB
:10048400F00080307002031D492A0030290203184D
:10049400542A83120810881483162908003CB700D4
:1004A40015215B2A83120814881083162908B700C3
:0404B4001521080006
:1004B800831603130612861286110611861006107B
:1004C80083120612861206108610061186110D2058
:1004D8000D200D20061586150616032006120D2080
:1004E8000616032006120D200616032006120D20FC
:1004F80086110616032006120D2006160320061282
:10050800061106140616032006120D20061086157D
:1005180006160320061286110616032006120D2061
:1005280006160320061286150616032006120D204D
:10053800861106160320061206148614061586155B
:0C0548000616032006120D206F14080098
:0C055400831203139B011D129D1208006E
:1005600083160313B701AB2070088312E3007108F0
:10057000E40001308316B700AB2070088312E1005D
:100580007108E20002308316B700AB2070088312B6
:10059000EB007108EC0004308316B700AB20700844
:1005A0008312E9007108EA0005308316B700AB201A
:1005B00070088312E7007108E80003308316B70063
:1005C000AB2070088312ED007108EE0080308316B6
:1005D0002306F0008030831264067002031DF32AA4
:1005E0006308831622020318FC2A01308312E300F9
:1005F0000030E4008817002B8312E301E401881324
:10060000803083162306F000803083126206700269
:10061000031D0D2B6108831622020318162B0130CF
:100620008312E1000030E20008171A2B8312E10167
:10063000E2010813803083162306F0008030831215
:100640006C067002031D272B6B0883162202031809
:10065000302B01308312EB000030EC008816342B75
:100660008312EB01EC018812803083162306F00020
:10067000803083126A067002031D412B69088316BD
:10068000220203184A2B01308312E9000030EA00ED
:1006900087174E2B8312E901EA01871380308316F6
:1006A0002306F0008030831268067002031D5B2B66
:1006B0006708831622020318642B01308312E700B7
:1006C0000030E8000717682B8312E701E8010713E1
:1006D000803083162306F000803083126E0670028D
:1006E000031D752B6D088316220203187E2B013023
:1006F0008312ED000030EE000816822B8312ED010C
:10070000EE0108126108F0006208F100F00DF10D31
:100710007010700863078316A00083126408031822
:10072000013E71078316A10083126B08F0006C086C
:10073000F1000530F4000030F5001A20700883162F
:10074000A00771080318013EA10783126908F00091
:100750006A08F1000930F4000030F5001A20700832
:100760008316A00771080318013EA10783126708CA
:10077000F0006808F1001430F4000030F5001A2091
:1007800070088316A00771080318013EA10708002E
:10079000831603130711831212150C3097040800F7
:1007A000A4208A110A128000840AE50A0319E60AC5
:0807B000F003031DD02B08002B
:0C07B8008312031395011712971208001A
:1007C40076265C2201308316B80045200C3083164F
:1007D400B8004520121492107C3083169200DC235A
:1007E400121492107C3083169200AA22C823C021CE
:1007F4000B228316870183128701831686018312D5
:100804008601831688018312880101308316A700AC
:100814000530A8002030A900C8211530FB004B305A
:10082400FC00BE30FD00FD0B152CFC0B152CFB0B46
:10083400152C00004E210130B8004520B0220030B4
:100844002106031D272C053020060319322C003005
:100854002106031D2F2C103020060319322C442CA2
:1008640083122C088316A70083122D088316A80070
:1008740083122C088316A90083122D088316AA005C
:100884002222262E003083162106031D4B2C0E3007
:1008940020060319562C00302106031D532C093061
:1008A40020060319562C622C83122C088316A700E9
:1008B40083122D088316A800A901AA012222262E3C
:1008C400003083162106031D692C1D3020060319F0
:1008D400742C00302106031D712C143020060319DA
:1008E400742C8A2C83122C088316A70083122D08DB
:1008F4008316A80083122C08003C8316A9008312D7
:100904002D08031C013E8316AA01AA022222262EC8
:10091400003083162106031D912C22302006031D6E
:10092400D62C83122C088316A70083122D08831655
:10093400A80083122C088316A90083122D0883169D
:10094400AA0022224130FC00EE30FD00FD0BA82C51
:10095400FC0BA82C0000B02200302106031DB42C8F
:1009640000302006031DD52C83122C088316A70003
:1009740083122D088316A80083122C08003C8316CA
:10098400A90083122D08031C013E8316AA01AA02A2
:100994002222B022003083126A06031DD32C0030B9
:1009A40069060319B62C262E003083162106031D72
:1009B400DD2C073020060319E82C00302106031D26
:1009C400E52C023020060319E82C212D83122C0873
:1009D4008316A70083122D088316A80083122C08FF
:1009E4008316A90083122D088316AA00222234300C
:1009F400FC00F130FD00FD0BFD2CFC0BFD2C000078
:100A04000000003083162106031D0A2D073020063E
:100A14000319152D00302106031D122D0230200666
:100A24000319152D202DA701A80183122C08831664
:100A3400A90083122D088316AA002222262E003034
:100A440083162106031D282D033020060319332D98
:100A540000302106031D302D013020060319332DEB
:100A6400492D83122C08003C8316A70083122D08FD
:100A7400031C013E8316A801A80283122C088316C6
:100A8400A90083122D088316AA002222262E0030E4
:100A940083162106031D502D08302006031D952DB5
:100AA40083122C088316A70083122D088316A8002E
:100AB40083122C088316A90083122D088316AA001A
:100AC40022224130FC00EE30FD00FD0B672DFC0BB3
:100AD400672D0000B02200302106031D732D003065
:100AE4002006031D942D83122C08003C8316A700B6
:100AF40083122D08031C013E8316A801A802831249
:100B04002C088316A90083122D088316AA0022221A
:100B1400B022003083126206031D922D003061065C
:100B24000319752D262E003083162106031D9C2DD6
:100B340025302006031DBE2D83122C088316A70022
:100B440083122D088316A80083122C08003C8316F8
:100B5400A90083122D08031C013E8316AA01AA02D0
:100B64002222B022003083126A06031DBB2D0030FE
:100B740069060319B32D262E003083162106031DA2
:100B8400C52D00302006031D262E003083126E066C
:100B9400031DCE2D01306D06031D262E00302B06BD
:100BA400031DD62D1A302A060319262E00302B06D3
:100BB400031DDE2D01302A060319262E00302B06D4
:100BC400031DE62D14302A060319262E00302B06A9
:100BD400031DEE2D00302A060319262E8716013038
:100BE4008316A7000530A800831233082F3E840023
:100BF40000088316A900C821003083162106031DAE
:100C0400052E00302006031D122E003083126E06BE
:100C1400031D0E2E01306D06031D122EB022FE2D73
:100C240083128712B30A0319B40A8030F0008030AB
:100C340034067002031D202E3308033C0318262EAD
:100C44000330B3000030B400831620088312AA00D6
:0C0C5400831621088312AB00202C2F2EE9
:100CEC0020308400413083120313F0003530E500CE
:080CFC000630E600D0230800D9
:100C6A0064346934673469346D3469346E34643495
:040C7A00733400349B
:040C7E00003400340A
:040C8200E634003420
:020C86000F3429
:080C88004B345634403435347E
:040C900000340034F8
:100C9400203420342034203444342034203420348C
:060CA4002034203400346E
:100CAA002034203420342034433420342034203477
:060CBA0020342034003458
:100CC0002034203420342034413420342034203463
:060CD00020342034003442
:100CD600203420342034203442342034203420344C
:060CE6002034203400342C
:02400E004A2F37
:00000001FF
